{
    "contractName": "MyToken",
    "abi": [
        {
            "inputs": [],
            "stateMutability": "nonpayable",
            "type": "constructor"
        },
        {
            "anonymous": false,
            "inputs": [
                {
                    "indexed": true,
                    "internalType": "address",
                    "name": "owner",
                    "type": "address"
                },
                {
                    "indexed": true,
                    "internalType": "address",
                    "name": "approved",
                    "type": "address"
                },
                {
                    "indexed": true,
                    "internalType": "uint256",
                    "name": "tokenId",
                    "type": "uint256"
                }
            ],
            "name": "Approval",
            "type": "event"
        },
        {
            "anonymous": false,
            "inputs": [
                {
                    "indexed": true,
                    "internalType": "address",
                    "name": "owner",
                    "type": "address"
                },
                {
                    "indexed": true,
                    "internalType": "address",
                    "name": "operator",
                    "type": "address"
                },
                {
                    "indexed": false,
                    "internalType": "bool",
                    "name": "approved",
                    "type": "bool"
                }
            ],
            "name": "ApprovalForAll",
            "type": "event"
        },
        {
            "anonymous": false,
            "inputs": [
                {
                    "indexed": true,
                    "internalType": "address",
                    "name": "previousOwner",
                    "type": "address"
                },
                {
                    "indexed": true,
                    "internalType": "address",
                    "name": "newOwner",
                    "type": "address"
                }
            ],
            "name": "OwnershipTransferred",
            "type": "event"
        },
        {
            "anonymous": false,
            "inputs": [
                {
                    "indexed": true,
                    "internalType": "address",
                    "name": "from",
                    "type": "address"
                },
                {
                    "indexed": true,
                    "internalType": "address",
                    "name": "to",
                    "type": "address"
                },
                {
                    "indexed": true,
                    "internalType": "uint256",
                    "name": "tokenId",
                    "type": "uint256"
                }
            ],
            "name": "Transfer",
            "type": "event"
        },
        {
            "inputs": [],
            "name": "MAX_SUPPLY",
            "outputs": [
                {
                    "internalType": "uint256",
                    "name": "",
                    "type": "uint256"
                }
            ],
            "stateMutability": "view",
            "type": "function"
        },
        {
            "inputs": [
                {
                    "internalType": "address",
                    "name": "to",
                    "type": "address"
                },
                {
                    "internalType": "uint256",
                    "name": "tokenId",
                    "type": "uint256"
                }
            ],
            "name": "approve",
            "outputs": [],
            "stateMutability": "nonpayable",
            "type": "function"
        },
        {
            "inputs": [
                {
                    "internalType": "address",
                    "name": "owner",
                    "type": "address"
                }
            ],
            "name": "balanceOf",
            "outputs": [
                {
                    "internalType": "uint256",
                    "name": "",
                    "type": "uint256"
                }
            ],
            "stateMutability": "view",
            "type": "function"
        },
        {
            "inputs": [],
            "name": "baseExtension",
            "outputs": [
                {
                    "internalType": "string",
                    "name": "",
                    "type": "string"
                }
            ],
            "stateMutability": "view",
            "type": "function"
        },
        {
            "inputs": [
                {
                    "internalType": "uint256",
                    "name": "tokenId",
                    "type": "uint256"
                }
            ],
            "name": "getApproved",
            "outputs": [
                {
                    "internalType": "address",
                    "name": "",
                    "type": "address"
                }
            ],
            "stateMutability": "view",
            "type": "function"
        },
        {
            "inputs": [
                {
                    "internalType": "address",
                    "name": "owner",
                    "type": "address"
                },
                {
                    "internalType": "address",
                    "name": "operator",
                    "type": "address"
                }
            ],
            "name": "isApprovedForAll",
            "outputs": [
                {
                    "internalType": "bool",
                    "name": "",
                    "type": "bool"
                }
            ],
            "stateMutability": "view",
            "type": "function"
        },
        {
            "inputs": [
                {
                    "internalType": "address",
                    "name": "_user",
                    "type": "address"
                }
            ],
            "name": "isWhitelisted",
            "outputs": [
                {
                    "internalType": "bool",
                    "name": "",
                    "type": "bool"
                }
            ],
            "stateMutability": "view",
            "type": "function"
        },
        {
            "inputs": [],
            "name": "mintRate",
            "outputs": [
                {
                    "internalType": "uint256",
                    "name": "",
                    "type": "uint256"
                }
            ],
            "stateMutability": "view",
            "type": "function"
        },
        {
            "inputs": [],
            "name": "name",
            "outputs": [
                {
                    "internalType": "string",
                    "name": "",
                    "type": "string"
                }
            ],
            "stateMutability": "view",
            "type": "function"
        },
        {
            "inputs": [],
            "name": "nftPerAddressLimit",
            "outputs": [
                {
                    "internalType": "uint256",
                    "name": "",
                    "type": "uint256"
                }
            ],
            "stateMutability": "view",
            "type": "function"
        },
        {
            "inputs": [],
            "name": "onlyWhitelisted",
            "outputs": [
                {
                    "internalType": "bool",
                    "name": "",
                    "type": "bool"
                }
            ],
            "stateMutability": "view",
            "type": "function"
        },
        {
            "inputs": [],
            "name": "owner",
            "outputs": [
                {
                    "internalType": "address",
                    "name": "",
                    "type": "address"
                }
            ],
            "stateMutability": "view",
            "type": "function"
        },
        {
            "inputs": [
                {
                    "internalType": "uint256",
                    "name": "tokenId",
                    "type": "uint256"
                }
            ],
            "name": "ownerOf",
            "outputs": [
                {
                    "internalType": "address",
                    "name": "",
                    "type": "address"
                }
            ],
            "stateMutability": "view",
            "type": "function"
        },
        {
            "inputs": [],
            "name": "renounceOwnership",
            "outputs": [],
            "stateMutability": "nonpayable",
            "type": "function"
        },
        {
            "inputs": [],
            "name": "safeMint",
            "outputs": [],
            "stateMutability": "payable",
            "type": "function"
        },
        {
            "inputs": [
                {
                    "internalType": "address",
                    "name": "from",
                    "type": "address"
                },
                {
                    "internalType": "address",
                    "name": "to",
                    "type": "address"
                },
                {
                    "internalType": "uint256",
                    "name": "tokenId",
                    "type": "uint256"
                }
            ],
            "name": "safeTransferFrom",
            "outputs": [],
            "stateMutability": "nonpayable",
            "type": "function"
        },
        {
            "inputs": [
                {
                    "internalType": "address",
                    "name": "from",
                    "type": "address"
                },
                {
                    "internalType": "address",
                    "name": "to",
                    "type": "address"
                },
                {
                    "internalType": "uint256",
                    "name": "tokenId",
                    "type": "uint256"
                },
                {
                    "internalType": "bytes",
                    "name": "data",
                    "type": "bytes"
                }
            ],
            "name": "safeTransferFrom",
            "outputs": [],
            "stateMutability": "nonpayable",
            "type": "function"
        },
        {
            "inputs": [
                {
                    "internalType": "address",
                    "name": "operator",
                    "type": "address"
                },
                {
                    "internalType": "bool",
                    "name": "approved",
                    "type": "bool"
                }
            ],
            "name": "setApprovalForAll",
            "outputs": [],
            "stateMutability": "nonpayable",
            "type": "function"
        },
        {
            "inputs": [
                {
                    "internalType": "bytes4",
                    "name": "interfaceId",
                    "type": "bytes4"
                }
            ],
            "name": "supportsInterface",
            "outputs": [
                {
                    "internalType": "bool",
                    "name": "",
                    "type": "bool"
                }
            ],
            "stateMutability": "view",
            "type": "function"
        },
        {
            "inputs": [],
            "name": "symbol",
            "outputs": [
                {
                    "internalType": "string",
                    "name": "",
                    "type": "string"
                }
            ],
            "stateMutability": "view",
            "type": "function"
        },
        {
            "inputs": [
                {
                    "internalType": "uint256",
                    "name": "index",
                    "type": "uint256"
                }
            ],
            "name": "tokenByIndex",
            "outputs": [
                {
                    "internalType": "uint256",
                    "name": "",
                    "type": "uint256"
                }
            ],
            "stateMutability": "view",
            "type": "function"
        },
        {
            "inputs": [
                {
                    "internalType": "address",
                    "name": "owner",
                    "type": "address"
                },
                {
                    "internalType": "uint256",
                    "name": "index",
                    "type": "uint256"
                }
            ],
            "name": "tokenOfOwnerByIndex",
            "outputs": [
                {
                    "internalType": "uint256",
                    "name": "",
                    "type": "uint256"
                }
            ],
            "stateMutability": "view",
            "type": "function"
        },
        {
            "inputs": [
                {
                    "internalType": "uint256",
                    "name": "tokenId",
                    "type": "uint256"
                }
            ],
            "name": "tokenURI",
            "outputs": [
                {
                    "internalType": "string",
                    "name": "",
                    "type": "string"
                }
            ],
            "stateMutability": "view",
            "type": "function"
        },
        {
            "inputs": [],
            "name": "totalSupply",
            "outputs": [
                {
                    "internalType": "uint256",
                    "name": "",
                    "type": "uint256"
                }
            ],
            "stateMutability": "view",
            "type": "function"
        },
        {
            "inputs": [
                {
                    "internalType": "address",
                    "name": "from",
                    "type": "address"
                },
                {
                    "internalType": "address",
                    "name": "to",
                    "type": "address"
                },
                {
                    "internalType": "uint256",
                    "name": "tokenId",
                    "type": "uint256"
                }
            ],
            "name": "transferFrom",
            "outputs": [],
            "stateMutability": "nonpayable",
            "type": "function"
        },
        {
            "inputs": [
                {
                    "internalType": "address",
                    "name": "newOwner",
                    "type": "address"
                }
            ],
            "name": "transferOwnership",
            "outputs": [],
            "stateMutability": "nonpayable",
            "type": "function"
        },
        {
            "inputs": [
                {
                    "internalType": "address[]",
                    "name": "_users",
                    "type": "address[]"
                }
            ],
            "name": "whitelistUsers",
            "outputs": [],
            "stateMutability": "nonpayable",
            "type": "function"
        },
        {
            "inputs": [
                {
                    "internalType": "uint256",
                    "name": "",
                    "type": "uint256"
                }
            ],
            "name": "whitelistedAddresses",
            "outputs": [
                {
                    "internalType": "address",
                    "name": "",
                    "type": "address"
                }
            ],
            "stateMutability": "view",
            "type": "function"
        },
        {
            "inputs": [],
            "name": "withdraw",
            "outputs": [],
            "stateMutability": "nonpayable",
            "type": "function"
        }
    ],
    "bytecode": "6000600c556005600d55612710600e5560e06040526036608081815290620023fc60a039601090620000329082620001f2565b50604080518082019091526005815264173539b7b760d91b60208201526011906200005e9082620001f2565b506013805460ff191660011790553480156200007957600080fd5b5060405180604001604052806006815260200165446a5f426f7960d01b81525060405180604001604052806002815260200161222160f11b8152508160009081620000c59190620001f2565b506001620000d48282620001f2565b505050620000f1620000eb620000f760201b60201c565b620000fb565b620002be565b3390565b600a80546001600160a01b038381166001600160a01b0319831681179093556040519116919082907f8be0079c531659141344cd1fd0a4f28419497f9722a3daafe3b4186f6b6457e090600090a35050565b634e487b7160e01b600052604160045260246000fd5b600181811c908216806200017857607f821691505b6020821081036200019957634e487b7160e01b600052602260045260246000fd5b50919050565b601f821115620001ed57600081815260208120601f850160051c81016020861015620001c85750805b601f850160051c820191505b81811015620001e957828155600101620001d4565b5050505b505050565b81516001600160401b038111156200020e576200020e6200014d565b62000226816200021f845462000163565b846200019f565b602080601f8311600181146200025e5760008415620002455750858301515b600019600386901b1c1916600185901b178555620001e9565b600085815260208120601f198616915b828110156200028f578886015182559484019460019091019084016200026e565b5085821015620002ae5787850151600019600388901b60f8161c191681555b5050505050600190811b01905550565b61212e80620002ce6000396000f3fe6080604052600436106101c25760003560e01c806370a08231116100f7578063ba4e5c4911610095578063ca0dcf1611610064578063ca0dcf16146104b7578063e985e9c5146104cd578063edec5f2714610516578063f2fde38b1461053657600080fd5b8063ba4e5c491461044c578063ba7d2c761461046c578063c668286214610482578063c87b56dd1461049757600080fd5b806395d89b41116100d157806395d89b41146103dd5780639c70b512146103f2578063a22cb4651461040c578063b88d4fde1461042c57600080fd5b806370a082311461038a578063715018a6146103aa5780638da5cb5b146103bf57600080fd5b806332cb6b0c1161016457806342842e0e1161013e57806342842e0e146103225780634f6ccce7146103425780636352211e146103625780636871ee401461038257600080fd5b806332cb6b0c146102d75780633af32abf146102ed5780633ccfd60b1461030d57600080fd5b8063095ea7b3116101a0578063095ea7b31461025657806318160ddd1461027857806323b872dd146102975780632f745c59146102b757600080fd5b806301ffc9a7146101c757806306fdde03146101fc578063081812fc1461021e575b600080fd5b3480156101d357600080fd5b506101e76101e2366004611aeb565b610556565b60405190151581526020015b60405180910390f35b34801561020857600080fd5b50610211610567565b6040516101f39190611b67565b34801561022a57600080fd5b5061023e610239366004611b7a565b6105f9565b6040516001600160a01b0390911681526020016101f3565b34801561026257600080fd5b50610276610271366004611baf565b610620565b005b34801561028457600080fd5b506008545b6040519081526020016101f3565b3480156102a357600080fd5b506102766102b2366004611bd9565b61073a565b3480156102c357600080fd5b506102896102d2366004611baf565b61076b565b3480156102e357600080fd5b50610289600e5481565b3480156102f957600080fd5b506101e7610308366004611c15565b610801565b34801561031957600080fd5b5061027661086a565b34801561032e57600080fd5b5061027661033d366004611bd9565b6108f0565b34801561034e57600080fd5b5061028961035d366004611b7a565b61090b565b34801561036e57600080fd5b5061023e61037d366004611b7a565b61099e565b6102766109fe565b34801561039657600080fd5b506102896103a5366004611c15565b610b6d565b3480156103b657600080fd5b50610276610bf3565b3480156103cb57600080fd5b50600a546001600160a01b031661023e565b3480156103e957600080fd5b50610211610c07565b3480156103fe57600080fd5b506013546101e79060ff1681565b34801561041857600080fd5b50610276610427366004611c30565b610c16565b34801561043857600080fd5b50610276610447366004611c82565b610c21565b34801561045857600080fd5b5061023e610467366004611b7a565b610c59565b34801561047857600080fd5b50610289600d5481565b34801561048e57600080fd5b50610211610c83565b3480156104a357600080fd5b506102116104b2366004611b7a565b610d11565b3480156104c357600080fd5b50610289600c5481565b3480156104d957600080fd5b506101e76104e8366004611d5e565b6001600160a01b03918216600090815260056020908152604080832093909416825291909152205460ff1690565b34801561052257600080fd5b50610276610531366004611d91565b610e95565b34801561054257600080fd5b50610276610551366004611c15565b610eb5565b600061056182610f2b565b92915050565b60606000805461057690611e06565b80601f01602080910402602001604051908101604052809291908181526020018280546105a290611e06565b80156105ef5780601f106105c4576101008083540402835291602001916105ef565b820191906000526020600020905b8154815290600101906020018083116105d257829003601f168201915b5050505050905090565b600061060482610f50565b506000908152600460205260409020546001600160a01b031690565b600061062b8261099e565b9050806001600160a01b0316836001600160a01b03160361069d5760405162461bcd60e51b815260206004820152602160248201527f4552433732313a20617070726f76616c20746f2063757272656e74206f776e656044820152603960f91b60648201526084015b60405180910390fd5b336001600160a01b03821614806106b957506106b981336104e8565b61072b5760405162461bcd60e51b815260206004820152603e60248201527f4552433732313a20617070726f76652063616c6c6572206973206e6f7420746f60448201527f6b656e206f776e6572206e6f7220617070726f76656420666f7220616c6c00006064820152608401610694565b6107358383610faf565b505050565b610744338261101d565b6107605760405162461bcd60e51b815260040161069490611e40565b61073583838361109c565b600061077683610b6d565b82106107d85760405162461bcd60e51b815260206004820152602b60248201527f455243373231456e756d657261626c653a206f776e657220696e646578206f7560448201526a74206f6620626f756e647360a81b6064820152608401610694565b506001600160a01b03919091166000908152600660209081526040808320938352929052205490565b6000805b600f5481101561086157826001600160a01b0316600f828154811061082c5761082c611e8e565b6000918252602090912001546001600160a01b03160361084f5750600192915050565b8061085981611eba565b915050610805565b50600092915050565b610872611243565b600047116108b45760405162461bcd60e51b815260206004820152600f60248201526e42616c616e6365206973203021212160881b6044820152606401610694565b600a546040516001600160a01b03909116904780156108fc02916000818181858888f193505050501580156108ed573d6000803e3d6000fd5b50565b61073583838360405180602001604052806000815250610c21565b600061091660085490565b82106109795760405162461bcd60e51b815260206004820152602c60248201527f455243373231456e756d657261626c653a20676c6f62616c20696e646578206f60448201526b7574206f6620626f756e647360a01b6064820152608401610694565b6008828154811061098c5761098c611e8e565b90600052602060002001549050919050565b6000818152600260205260408120546001600160a01b0316806105615760405162461bcd60e51b8152602060048201526018602482015277115490cdcc8c4e881a5b9d985b1a59081d1bdad95b88125160421b6044820152606401610694565b6000610a0933610b6d565b90506000610a16600b5490565b9050600e54610a2460085490565b10610a655760405162461bcd60e51b815260206004820152601160248201527043616e2774206d696e74206d6f7265212160781b6044820152606401610694565b600c54341015610ab75760405162461bcd60e51b815260206004820152601860248201527f4e6f7420656e6f7567682065746865722073656e6421212100000000000000006044820152606401610694565b610ac033610801565b610b0c5760405162461bcd60e51b815260206004820152601960248201527f75736572206973206e6f742077686974656c69737465642121000000000000006044820152606401610694565b600d548210610b515760405162461bcd60e51b815260206004820152601160248201527043616e2774206d696e74206d6f7265212160781b6044820152606401610694565b610b5f600b80546001019055565b610b69338261129d565b5050565b60006001600160a01b038216610bd75760405162461bcd60e51b815260206004820152602960248201527f4552433732313a2061646472657373207a65726f206973206e6f7420612076616044820152683634b21037bbb732b960b91b6064820152608401610694565b506001600160a01b031660009081526003602052604090205490565b610bfb611243565b610c0560006112b7565b565b60606001805461057690611e06565b610b69338383611309565b610c2b338361101d565b610c475760405162461bcd60e51b815260040161069490611e40565b610c53848484846113d7565b50505050565b600f8181548110610c6957600080fd5b6000918252602090912001546001600160a01b0316905081565b60118054610c9090611e06565b80601f0160208091040260200160405190810160405280929190818152602001828054610cbc90611e06565b8015610d095780601f10610cde57610100808354040283529160200191610d09565b820191906000526020600020905b815481529060010190602001808311610cec57829003601f168201915b505050505081565b6000818152600260205260409020546060906001600160a01b0316610d905760405162461bcd60e51b815260206004820152602f60248201527f4552433732314d657461646174613a2055524920717565727920666f72206e6f60448201526e3732bc34b9ba32b73a103a37b5b2b760891b6064820152608401610694565b60008281526012602052604081208054610da990611e06565b80601f0160208091040260200160405190810160405280929190818152602001828054610dd590611e06565b8015610e225780601f10610df757610100808354040283529160200191610e22565b820191906000526020600020905b815481529060010190602001808311610e0557829003601f168201915b505050505090506000610e3361140a565b90508051600003610e45575092915050565b815115610e77578082604051602001610e5f929190611ed3565b60405160208183030381529060405292505050919050565b80610e8185611419565b6011604051602001610e5f93929190611f02565b610e9d611243565b610ea9600f6000611a3f565b610735600f8383611a5d565b610ebd611243565b6001600160a01b038116610f225760405162461bcd60e51b815260206004820152602660248201527f4f776e61626c653a206e6577206f776e657220697320746865207a65726f206160448201526564647265737360d01b6064820152608401610694565b6108ed816112b7565b60006001600160e01b0319821663780e9d6360e01b148061056157506105618261151a565b6000818152600260205260409020546001600160a01b03166108ed5760405162461bcd60e51b8152602060048201526018602482015277115490cdcc8c4e881a5b9d985b1a59081d1bdad95b88125160421b6044820152606401610694565b600081815260046020526040902080546001600160a01b0319166001600160a01b0384169081179091558190610fe48261099e565b6001600160a01b03167f8c5be1e5ebec7d5bd14f71427d1e84f3dd0314c0f7b2291e5b200ac8c7c3b92560405160405180910390a45050565b6000806110298361099e565b9050806001600160a01b0316846001600160a01b0316148061107057506001600160a01b0380821660009081526005602090815260408083209388168352929052205460ff165b806110945750836001600160a01b0316611089846105f9565b6001600160a01b0316145b949350505050565b826001600160a01b03166110af8261099e565b6001600160a01b0316146111135760405162461bcd60e51b815260206004820152602560248201527f4552433732313a207472616e736665722066726f6d20696e636f72726563742060448201526437bbb732b960d91b6064820152608401610694565b6001600160a01b0382166111755760405162461bcd60e51b8152602060048201526024808201527f4552433732313a207472616e7366657220746f20746865207a65726f206164646044820152637265737360e01b6064820152608401610694565b61118083838361156a565b61118b600082610faf565b6001600160a01b03831660009081526003602052604081208054600192906111b4908490611fc9565b90915550506001600160a01b03821660009081526003602052604081208054600192906111e2908490611fe0565b909155505060008181526002602052604080822080546001600160a01b0319166001600160a01b0386811691821790925591518493918716917fddf252ad1be2c89b69c2b068fc378daa952ba7f163c4a11628f55a4df523b3ef91a4505050565b600a546001600160a01b03163314610c055760405162461bcd60e51b815260206004820181905260248201527f4f776e61626c653a2063616c6c6572206973206e6f7420746865206f776e65726044820152606401610694565b610b69828260405180602001604052806000815250611575565b600a80546001600160a01b038381166001600160a01b0319831681179093556040519116919082907f8be0079c531659141344cd1fd0a4f28419497f9722a3daafe3b4186f6b6457e090600090a35050565b816001600160a01b0316836001600160a01b03160361136a5760405162461bcd60e51b815260206004820152601960248201527f4552433732313a20617070726f766520746f2063616c6c6572000000000000006044820152606401610694565b6001600160a01b03838116600081815260056020908152604080832094871680845294825291829020805460ff191686151590811790915591519182527f17307eab39ab6107e8899845ad3d59bd9653f200f220920489ca2b5937696c31910160405180910390a3505050565b6113e284848461109c565b6113ee848484846115a8565b610c535760405162461bcd60e51b815260040161069490611ff8565b60606010805461057690611e06565b6060816000036114405750506040805180820190915260018152600360fc1b602082015290565b8160005b811561146a578061145481611eba565b91506114639050600a83612060565b9150611444565b60008167ffffffffffffffff81111561148557611485611c6c565b6040519080825280601f01601f1916602001820160405280156114af576020820181803683370190505b5090505b8415611094576114c4600183611fc9565b91506114d1600a86612074565b6114dc906030611fe0565b60f81b8183815181106114f1576114f1611e8e565b60200101906001600160f81b031916908160001a905350611513600a86612060565b94506114b3565b60006001600160e01b031982166380ac58cd60e01b148061154b57506001600160e01b03198216635b5e139f60e01b145b8061056157506301ffc9a760e01b6001600160e01b0319831614610561565b6107358383836116a9565b61157f8383611761565b61158c60008484846115a8565b6107355760405162461bcd60e51b815260040161069490611ff8565b60006001600160a01b0384163b1561169e57604051630a85bd0160e11b81526001600160a01b0385169063150b7a02906115ec903390899088908890600401612088565b6020604051808303816000875af1925050508015611627575060408051601f3d908101601f19168201909252611624918101906120c5565b60015b611684573d808015611655576040519150601f19603f3d011682016040523d82523d6000602084013e61165a565b606091505b50805160000361167c5760405162461bcd60e51b815260040161069490611ff8565b805181602001fd5b6001600160e01b031916630a85bd0160e11b149050611094565b506001949350505050565b6001600160a01b038316611704576116ff81600880546000838152600960205260408120829055600182018355919091527ff3f7a9fe364faab93b216da50a3214154f22a0a2b415b23a84c8169e8b636ee30155565b611727565b816001600160a01b0316836001600160a01b0316146117275761172783826118af565b6001600160a01b03821661173e576107358161194c565b826001600160a01b0316826001600160a01b0316146107355761073582826119fb565b6001600160a01b0382166117b75760405162461bcd60e51b815260206004820181905260248201527f4552433732313a206d696e7420746f20746865207a65726f20616464726573736044820152606401610694565b6000818152600260205260409020546001600160a01b03161561181c5760405162461bcd60e51b815260206004820152601c60248201527f4552433732313a20746f6b656e20616c7265616479206d696e746564000000006044820152606401610694565b6118286000838361156a565b6001600160a01b0382166000908152600360205260408120805460019290611851908490611fe0565b909155505060008181526002602052604080822080546001600160a01b0319166001600160a01b03861690811790915590518392907fddf252ad1be2c89b69c2b068fc378daa952ba7f163c4a11628f55a4df523b3ef908290a45050565b600060016118bc84610b6d565b6118c69190611fc9565b600083815260076020526040902054909150808214611919576001600160a01b03841660009081526006602090815260408083208584528252808320548484528184208190558352600790915290208190555b5060009182526007602090815260408084208490556001600160a01b039094168352600681528383209183525290812055565b60085460009061195e90600190611fc9565b6000838152600960205260408120546008805493945090928490811061198657611986611e8e565b9060005260206000200154905080600883815481106119a7576119a7611e8e565b60009182526020808320909101929092558281526009909152604080822084905585825281205560088054806119df576119df6120e2565b6001900381819060005260206000200160009055905550505050565b6000611a0683610b6d565b6001600160a01b039093166000908152600660209081526040808320868452825280832085905593825260079052919091209190915550565b50805460008255906000526020600020908101906108ed9190611ac0565b828054828255906000526020600020908101928215611ab0579160200282015b82811115611ab05781546001600160a01b0319166001600160a01b03843516178255602090920191600190910190611a7d565b50611abc929150611ac0565b5090565b5b80821115611abc5760008155600101611ac1565b6001600160e01b0319811681146108ed57600080fd5b600060208284031215611afd57600080fd5b8135611b0881611ad5565b9392505050565b60005b83811015611b2a578181015183820152602001611b12565b83811115610c535750506000910152565b60008151808452611b53816020860160208601611b0f565b601f01601f19169290920160200192915050565b602081526000611b086020830184611b3b565b600060208284031215611b8c57600080fd5b5035919050565b80356001600160a01b0381168114611baa57600080fd5b919050565b60008060408385031215611bc257600080fd5b611bcb83611b93565b946020939093013593505050565b600080600060608486031215611bee57600080fd5b611bf784611b93565b9250611c0560208501611b93565b9150604084013590509250925092565b600060208284031215611c2757600080fd5b611b0882611b93565b60008060408385031215611c4357600080fd5b611c4c83611b93565b915060208301358015158114611c6157600080fd5b809150509250929050565b634e487b7160e01b600052604160045260246000fd5b60008060008060808587031215611c9857600080fd5b611ca185611b93565b9350611caf60208601611b93565b925060408501359150606085013567ffffffffffffffff80821115611cd357600080fd5b818701915087601f830112611ce757600080fd5b813581811115611cf957611cf9611c6c565b604051601f8201601f19908116603f01168101908382118183101715611d2157611d21611c6c565b816040528281528a6020848701011115611d3a57600080fd5b82602086016020830137600060208483010152809550505050505092959194509250565b60008060408385031215611d7157600080fd5b611d7a83611b93565b9150611d8860208401611b93565b90509250929050565b60008060208385031215611da457600080fd5b823567ffffffffffffffff80821115611dbc57600080fd5b818501915085601f830112611dd057600080fd5b813581811115611ddf57600080fd5b8660208260051b8501011115611df457600080fd5b60209290920196919550909350505050565b600181811c90821680611e1a57607f821691505b602082108103611e3a57634e487b7160e01b600052602260045260246000fd5b50919050565b6020808252602e908201527f4552433732313a2063616c6c6572206973206e6f7420746f6b656e206f776e6560408201526d1c881b9bdc88185c1c1c9bdd995960921b606082015260800190565b634e487b7160e01b600052603260045260246000fd5b634e487b7160e01b600052601160045260246000fd5b600060018201611ecc57611ecc611ea4565b5060010190565b60008351611ee5818460208801611b0f565b835190830190611ef9818360208801611b0f565b01949350505050565b600084516020611f158285838a01611b0f565b855191840191611f288184848a01611b0f565b8554920191600090600181811c9080831680611f4557607f831692505b8583108103611f6257634e487b7160e01b85526022600452602485fd5b808015611f765760018114611f8b57611fb8565b60ff1985168852831515840288019550611fb8565b60008b81526020902060005b85811015611fb05781548a820152908401908801611f97565b505083880195505b50939b9a5050505050505050505050565b600082821015611fdb57611fdb611ea4565b500390565b60008219821115611ff357611ff3611ea4565b500190565b60208082526032908201527f4552433732313a207472616e7366657220746f206e6f6e20455243373231526560408201527131b2b4bb32b91034b6b83632b6b2b73a32b960711b606082015260800190565b634e487b7160e01b600052601260045260246000fd5b60008261206f5761206f61204a565b500490565b6000826120835761208361204a565b500690565b6001600160a01b03858116825284166020820152604081018390526080606082018190526000906120bb90830184611b3b565b9695505050505050565b6000602082840312156120d757600080fd5b8151611b0881611ad5565b634e487b7160e01b600052603160045260246000fdfea264697066735822122037841eed0035bf6ec6cca171f5ffad4d0eb8c9de72031727f93ccc76fa23e98564736f6c634300080f0033697066733a2f2f516d617841515753796f444369597532314c6565476f634172375352417a6267556557376f595377636b6939346b2f",
    "sourcePath": "/home/wyx/NFT/contract/nft.sol",
    "compiler": {
        "name": "solc",
        "version": "0.8.15+commit.e14f2714"
    },
    "functionHashes": {
        "MAX_SUPPLY()": "32cb6b0c",
        "approve(address,uint256)": "095ea7b3",
        "balanceOf(address)": "70a08231",
        "baseExtension()": "c6682862",
        "getApproved(uint256)": "081812fc",
        "isApprovedForAll(address,address)": "e985e9c5",
        "isWhitelisted(address)": "3af32abf",
        "mintRate()": "ca0dcf16",
        "name()": "06fdde03",
        "nftPerAddressLimit()": "ba7d2c76",
        "onlyWhitelisted()": "9c70b512",
        "owner()": "8da5cb5b",
        "ownerOf(uint256)": "6352211e",
        "renounceOwnership()": "715018a6",
        "safeMint()": "6871ee40",
        "safeTransferFrom(address,address,uint256)": "42842e0e",
        "safeTransferFrom(address,address,uint256,bytes)": "b88d4fde",
        "setApprovalForAll(address,bool)": "a22cb465",
        "supportsInterface(bytes4)": "01ffc9a7",
        "symbol()": "95d89b41",
        "tokenByIndex(uint256)": "4f6ccce7",
        "tokenOfOwnerByIndex(address,uint256)": "2f745c59",
        "tokenURI(uint256)": "c87b56dd",
        "totalSupply()": "18160ddd",
        "transferFrom(address,address,uint256)": "23b872dd",
        "transferOwnership(address)": "f2fde38b",
        "whitelistUsers(address[])": "edec5f27",
        "whitelistedAddresses(uint256)": "ba4e5c49",
        "withdraw()": "3ccfd60b"
    },
    "gasEstimates": {
        "creation": {
            "codeDepositCost": "1698800",
            "executionCost": "infinite",
            "totalCost": "infinite"
        },
        "external": {
            "MAX_SUPPLY()": "2341",
            "approve(address,uint256)": "infinite",
            "balanceOf(address)": "2635",
            "baseExtension()": "infinite",
            "getApproved(uint256)": "4815",
            "isApprovedForAll(address,address)": "infinite",
            "isWhitelisted(address)": "infinite",
            "mintRate()": "2339",
            "name()": "infinite",
            "nftPerAddressLimit()": "2362",
            "onlyWhitelisted()": "2366",
            "owner()": "2421",
            "ownerOf(uint256)": "2627",
            "renounceOwnership()": "infinite",
            "safeMint()": "infinite",
            "safeTransferFrom(address,address,uint256)": "infinite",
            "safeTransferFrom(address,address,uint256,bytes)": "infinite",
            "setApprovalForAll(address,bool)": "26772",
            "supportsInterface(bytes4)": "infinite",
            "symbol()": "infinite",
            "tokenByIndex(uint256)": "6782",
            "tokenOfOwnerByIndex(address,uint256)": "5042",
            "tokenURI(uint256)": "infinite",
            "totalSupply()": "2349",
            "transferFrom(address,address,uint256)": "infinite",
            "transferOwnership(address)": "28446",
            "whitelistUsers(address[])": "infinite",
            "whitelistedAddresses(uint256)": "4659",
            "withdraw()": "infinite"
        },
        "internal": {
            "_baseURI()": "infinite",
            "_beforeTokenTransfer(address,address,uint256)": "infinite"
        }
    }
}